:100000000C946C010C949D010C949D010C949D0129
:100010000C949D010C949D010C949D010C949D01E8
:100020000C949D010C949D010C949D010C949D01D8
:100030000C949D010C949D010C949D010C949D01C8
:100040000C949D010C949D010C949D010C949D01B8
:100050000C949D010C949D010C949D010C941F0D1A
:100060000C949D010C94930D0C94690D0C949D01BE
:100070000C949D010C949D010C949D010C949D0188
:100080000C949D010C949D010C949D010C949D0178
:100090000C949D010C949D010C949D010C94C90D30
:1000A0000C949D010C949D010C949D010C949D0158
:1000B0000C949D010C949D010C949D010C949D0148
:1000C0000C949D010C949D010C949D010C949D0138
:1000D0000C949D010C949D010C949D010C949D0128
:1000E0000C949D010C948D030C9417050C948106BF
:1000F0000C9434040C9485040C9407020C94EF13B4
:100100000C9451030C94AE050C94FE010C94F91060
:100110000C9494050C94AF030C940C020C94F90508
:100120000C9473050C94A1030C94F0010C94080238
:100130000C94E7030C9431060C9444050C94FA01DA
:100140000C94EE040C9410050C94E6010C94450CF0
:100150000C94D5010C94D1010C94CD010C94E90EB2
:100160000C9485060C94ED040C94990C0C941906CF
:100170000C94FD040C94F4010C94E7050C947E039C
:100180000C9483060C94C4050C94EC010C94D406D6
:100190000C942F060C9486040C94DC010C940B0632
:1001A0000C9437060C9402020C94E2010C94C701E3
:1001B0000C94D901000020002300260029002C0007
:1001C0002F003200000100000301060109010000B8
:1001D0002100240027002A002D00300033000101F7
:1001E0000000040107010A01000022002500280088
:1001F0002B002E003100340002010000050108012F
:100200000B0105050505070508080808020202029A
:100210000A0A0808040404040101010101010101A2
:100220000303030303030303040707070C0C0C0C6D
:100230000C0C0C0C02020202060606060606060656
:100240000B0B0B0B0B0B0B0B0102102020080810E3
:100250002040102040800201020108040201010236
:10026000040810204080804020100804020180040F
:10027000020180402010080402010804020101026A
:100280000408102040800102040810204080000073
:100290000A0B02090C0D0E08070304010000000000
:1002A000000000000000000000000000000000004E
:1002B000000000000000000000001211100000000B
:1002C000000000000000000000000000000000002E
:1002D00000000000E90EF91011241FBECFEFD1E29B
:1002E000DEBFCDBF00E00CBF12E0A0E0B2E0EAEE5E
:1002F000FCE200E00BBF02C007900D92AE34B107E4
:10030000D9F723E0AEE4B2E001C01D92A13FB207ED
:10031000E1F711E0CBE6D1E000E006C0219701094A
:10032000802FFE010E946E13CA36D10780E00807B5
:10033000A9F70E94540F0C9463160C940000FC0162
:1003400020812EBD0DB407FEFDCF2EB5FC0120830C
:1003500008958150823108F05AC0E82FF0E08827D4
:10036000EB54FE4F8F4F0C946E13D501D901C7018A
:10037000CD01D1010702DC01E201E601EC01F0014F
:10038000F401FA01FE010702020208020C02809148
:1003900080008F77809380000895809180008F7D0A
:1003A000F9CF80918000877FF5CF84B58F7784BDAA
:1003B000089584B58F7DFBCF8091B0008F778093B7
:1003C000B00008958091B0008F7DF9CF80919000AA
:1003D0008F77809390000895809190008F7DF9CF62
:1003E00080919000877FF5CF8091A0008F778093D8
:1003F000A00008958091A0008F7DF9CF8091A0008A
:10040000877FF5CF809120018F7780932001089519
:10041000809120018F7DF9CF80912001877FF5CFDA
:100420001F93CF93DF93282F30E0F901E257FD4F60
:100430008491F901E85BFD4FD491F901EE5FFD4F26
:10044000C491CC23A9F0162F81110E94A901EC2F91
:10045000F0E0EE0FFF1FE851FE4FA591B4918FB76A
:10046000F894EC91111108C0D095DE23DC938FBF76
:10047000DF91CF911F910895DE2BF8CFCF93DF93BB
:1004800090E0FC01E85BFD4F24918E5F9D4FFC01E5
:1004900084918823D1F090E0880F991FFC01E253EA
:1004A000FE4FA591B491FC01E851FE4FC591D49146
:1004B00061110EC09FB7F8948C91E22FE0958E23C6
:1004C0008C932881E223E8839FBFDF91CF91089529
:1004D0008FB7F894EC91E22BEC938FBFF6CF82307C
:1004E000910538F0880F991F880F991F059701977C
:1004F000F1F708959F92AF92BF92CF92DF92EF9261
:10050000FF920F931F93CF93DF93EC016B018885CC
:10051000998511E0892B09F010E8F601A0808A2D59
:100520008123992493948111912C2C813D814E81BA
:100530005F8160E271EA87E090E00E944C13022F35
:10054000B12CE22EF12C002319F0C7010E946F029A
:100550008A85877F09F04FC08D858F3F89F09A2D5E
:10056000912381E009F480E0891551F0EF85F88945
:100570008F899923D1F19081892B80839924939439
:10058000E989FA898081998D892B8083002319F06C
:10059000C7010E946F028E858F3F39F0EB89FC897D
:1005A0008081988D892309F0B12AE989FA8990819F
:1005B000898D8095892380838E858F3F11F0F60188
:1005C000B08288859985892B09F044C0110F1111DB
:1005D000BACFDF91CF911F910F91FF90EF90DF90F5
:1005E000CF90BF90AF909F90089590818095892380
:1005F0008083912CC5CFE989FA898081998D892BD7
:100600008083002319F0C7010E946F028D858F3F00
:1006100049F0EF85F8898F899A2D9123B9F090815F
:10062000892B8083E989FA899081898D8095892336
:1006300080838E858F3F09F4BFCFEB89FC89808151
:10064000988D892309F4B8CFB12AB6CF90818095CF
:100650008923E7CF1695BBCF3FB7F894809113035A
:1006600090911403A0911503B091160326B5A89B91
:1006700005C02F3F19F00196A11DB11D3FBFBA2F34
:10068000A92F982F8827BC01CD01620F711D811DF4
:10069000911D42E0660F771F881F991F4A95D1F779
:1006A0000895AF92BF92CF92DF92EF92FF920F9395
:1006B0001F93CF93DF936C017B018B01040F151FF8
:1006C000EB015E01AE18BF08C017D10759F0699160
:1006D000D601ED91FC910190F081E02DC6011995B4
:1006E000892B79F7C501DF91CF911F910F91FF9071
:1006F000EF90DF90CF90BF90AF900895FC01538DA5
:10070000448D252F30E0842F90E0821B930B5417EB
:1007100010F0CF96089501970895FC01918D828D78
:10072000981761F0A28DAE0FBF2FB11D5D968C9111
:10073000928D9F5F9F73928F90E008958FEF9FEF50
:100740000895FC01918D828D981731F0828DE80F0C
:10075000F11D858D90E008958FEF9FEF0895FC01C6
:10076000918D228D892F90E0805C9F4F821B910993
:100770008F739927089587E193E00E94AF0321E0EA
:10078000892B09F420E0822F0895FC01A48DA80F85
:10079000B92FB11DA35ABF4F2C91848D90E00196C3
:1007A0008F739927848FA689B7892C93A089B189E3
:1007B0008C91837080648C93938D848D981306C084
:1007C0000288F389E02D80818F7D80830895EF92E8
:1007D000FF920F931F93CF93DF93EC0181E0888FFB
:1007E0009B8D8C8D98131AC0E889F989808185FFCB
:1007F00015C09FB7F894EE89FF896083E889F9896D
:1008000080818370806480839FBF81E090E0DF916E
:10081000CF911F910F91FF90EF900895F62E0B8DC1
:1008200010E00F5F1F4F0F731127E02E8C8D8E117C
:100830000CC00FB607FCFACFE889F989808185FFE3
:10084000F5CFCE010E94C503F1CFEB8DEC0FFD2F4C
:10085000F11DE35AFF4FF0829FB7F8940B8FEA899E
:10086000FB8980818062CFCFCF93DF93EC01888DAD
:100870008823B9F0AA89BB89E889F9898C9185FD1B
:1008800003C0808186FD0DC00FB607FCF7CF8C91A9
:1008900085FFF2CF808185FFEDCFCE010E94C50399
:1008A000E9CFDF91CF91089580E090E0892B29F086
:1008B0000E94BB0381110E94000080E090E0892B20
:1008C00049F080E090E0892B29F00E94000081111E
:1008D0000E94000080E090E0892B49F080E090E0E9
:1008E000892B29F00E94000081110E94000080E005
:1008F00090E0892B49F080E090E0892B29F00E945C
:10090000000081110C9400000895089508951F932C
:10091000CF93DF93C1E0C0934E02882399F1D09129
:10092000B8001091BA008091BC008A7B8093BC0013
:1009300060E084E10E94100260E085E10E94100204
:100940001092DA02C093D9021092B40261E084E1FD
:100950000E94100261E085E10E9410028091B900BE
:100960008E7F8093B9008091B9008D7F8093B9000C
:1009700088E48093B80085E48093BC001093BA00AB
:10098000D093B800DF91CF911F91089520916F020D
:10099000260F3327331F21323105ECF42091DA0280
:1009A000FC0190E080E0243069F082E00895A0919D
:1009B0006F022191AC01415B5D4FA40FB52FB11DBA
:1009C0002C930196861798F380916F02680F6093BD
:1009D0006F0280E0089581E008950895E091930208
:1009E00080919202E81730F4F0E0EC56FD4F8081E0
:1009F00090E008958FEF9FEF08959091930280917A
:100A000092022FEF3FEF981748F4E92FF0E0EC56F1
:100A1000FD4F208130E09F5F90939302C9010895BC
:100A20008091920290919302891B990B0895CF9225
:100A3000DF92EF92FF920F931F93CF93DF937C018E
:100A4000CB018A0120910303222389F0EB016B0182
:100A5000C40ED51ECC15DD0569F06991D701ED9165
:100A6000FC910190F081E02DC7011995F3CF642F1F
:100A70000E94C604C801DF91CF911F910F91FF9092
:100A8000EF90DF90CF900895CF93DF931F92CDB773
:100A9000DEB76983209103032223F9F0209100033C
:100AA000203258F021E030E0FC013383228390E0D3
:100AB00080E00F90DF91CF91089580910103E82F9E
:100AC000F0E0E052FD4F998190838F5F80930103A6
:100AD0008093000381E090E0ECCF61E0CE010196CD
:100AE0000E94C604F7CF90E080E008950F931F9313
:100AF000CF938C01C62F60E08C2F0E9410020A3029
:100B0000110508F0BAC0F8018827E657FA4F8F4F51
:100B10000C946E139405AE05C405E705F9050B06A4
:100B200019062F063106370661E082E00E941002A6
:100B300061E083E00E94100261E084E00E94100204
:100B400061E085E00E94100261E086E00E941002F0
:100B500061E087E00E94100260E02FC060E082E068
:100B60000E94100261E083E00E94100261E084E0D4
:100B70000E94100260E085E00E94100260E086E0C2
:100B80000E94100260E0E5CF61E082E00E94100266
:100B900061E083E00E94100260E084E00E941002A5
:100BA00061E085E00E94100261E086E00E94100290
:100BB00060E087E00E94100261E088E00E9410027D
:100BC00061E08C2FCF911F910F910C94100261E086
:100BD00082E00E94100261E083E00E94100261E066
:100BE00084E00E94100261E085E00E94100260E053
:100BF000DCCF60E082E00E94100261E083E00E94AE
:100C0000100261E084E00E94100260E085E00E9432
:100C1000100260E01FC061E082E00E94100260E00C
:100C200083E00E94100261E084E00E94100261E013
:100C3000EDCF61E082E00E94100260E083E00E945C
:100C4000100261E084E00E94100261E085E00E94F1
:100C5000100261E086E00E94100261E0AACF61E02C
:100C60007ECF61E082E00E94100261E0E7CF61E0A8
:100C700082E00E94100261E0D3CF60E082E00E9437
:100C8000100260E083E00E94100260E070CF0F93DA
:100C90001F93CF93DF930E94A311EB01CB0168EE6A
:100CA00073E00E943813CB016AE070E00E94760581
:100CB000CE0164E670E00E943813CB010AE010E038
:100CC000B8010E9438136BE070E00E947605CE01F7
:100CD000B8010E943813EC01CB01B8010E9438130F
:100CE0006CE070E00E9476056DE070E0CE010E943D
:100CF000760561E089E0DF91CF911F910F910C940F
:100D000010020C94CB150C94CB150F931F93CF931B
:100D1000DF938C01EB0188E2FB0111928A95E9F7E0
:100D20004BE050E066E472E0CE010E9454161B8650
:100D300081E090E0A0E0B0E08C879D87AE87BF8720
:100D4000F80182819381092E000CAA0BBB0B888BC2
:100D5000998BAA8BBB8B86E090E0A0E0B0E08C8BF7
:100D60009D8BAE8BBF8B1CA21DA21EA21FA280E07A
:100D700090E0A6E9B3E48C8F9D8FAE8FBF8F80E0AB
:100D800090E8A9E8B4E4888F998FAA8FBB8F86EA90
:100D90009BE9A4E4BCE388A399A3AAA3BBA3DF9126
:100DA000CF911F910F9108950F931F93CF93DF93CE
:100DB0008C01EB0188E2FB0111928A95E9F74BE087
:100DC00050E066E472E0CE010E9454161B8681E07A
:100DD00090E0A0E0B0E08C879D87AE87BF87F801E8
:100DE00082819381092E000CAA0BBB0B888B998BF7
:100DF000AA8BBB8B8DE090E0A0E0B0E08C8B9D8B4C
:100E0000AE8BBF8B1CA21DA21EA21FA280E090E091
:100E1000A0E2B2EC8C8F9D8FAE8FBF8F80E090E010
:100E2000AAEAB2E4888F998FAA8FBB8F8AE097EDE8
:100E3000A3E2BCE388A399A3AAA3BBA3DF91CF91AC
:100E40001F910F9108952F923F924F925F926F9250
:100E50007F928F929F92AF92BF92CF92DF92EF924A
:100E6000FF920F931F93CF93DF9300D01F92CDB7C4
:100E7000DEB7DC011296ED90FC9013976983E114C4
:100E8000F10409F423C2F70184819581892B09F4C7
:100E9000FAC181819281208131E030930303209354
:100EA00002031092010310920003DC01ED91FC910A
:100EB0000280F381E02D41E050E0BE016F5F7F4F83
:100EC0001995019709F0DFC10091000381E001321B
:100ED00008F09BC0109102030E942C034B015C019F
:100EE0008091DA0281116BC082E08093DA02109265
:100EF000D9028FEF8093D8021092D7020093D602C6
:100F0000A0EEB2E0E6EBF2E080E0081316C110922A
:100F1000B5028091B502110F182B1093B502809184
:100F2000B402813009F00DC11092B4020E942C036A
:100F30004B015C018091B5028093BB008091DC0283
:100F40009091DD02A091DE02B091DF02892B8A2B05
:100F50008B2BA1F00E942C030091DC021091DD028A
:100F60002091DE023091DF02681979098A099B0914
:100F7000061717072807390708F442C08091BC00FC
:100F800083FDD8CF85EC8093BC000E942C034B01DD
:100F90005C018091DA02823009F4D5C08091D802D8
:100FA0008F3F09F4F2C08091D802803209F4EFC07B
:100FB0008091D802803309F4ECC084E026C080918F
:100FC000DC029091DD02A091DE02B091DF02892B5C
:100FD0008A2B8B2B09F484CF0E942C034090DC02D7
:100FE0005090DD026090DE027090DF02681979098E
:100FF0008A099B09461657066806790608F070CFDD
:101000008091DB020E94870485E010920103109218
:10101000000310920303811136C1D12CC12C63E06F
:10102000862E912C3324339475EC272EF70184817E
:10103000958184010C191D098017910708F48C0112
:10104000D701AC900E942C032B013C018091DA0265
:101050008111A1C0B02EB0E2B01710F450E2B52E4D
:101060003092DA0221E0C401801B910BC816D90628
:1010700008F420E02093D902EFEFE093D802109219
:10108000D7028FEF8B0D8093D6023092B5028091FC
:10109000B502AA0CA82AA092B5028091B4028130B0
:1010A00009F0C4C01092B4020E942C032B013C0131
:1010B0008091B5028093BB008091DC029091DD02AB
:1010C000A091DE02B091DF02892B8A2B8B2BA1F03D
:1010D0000E942C032091DC023091DD024091DE025F
:1010E0005091DF0264197509860997092617370799
:1010F0004807590708F470C08091BC0083FDD8CF21
:101100002092BC000E942C032B013C018091DA024A
:10111000813009F48FC08091D7028B1510F4B09004
:10112000D702A6EBB2E0E4E9F2E080E08B1509F427
:1011300058C09D9191938F5FF9CF9D9191938F5F4F
:10114000E4CE85EE20CF8091DC029091DD02A0916B
:10115000DE02B091DF02892B8A2B8B2B09F419CF89
:101160000E942C030091DC021091DD022091DE022E
:101170003091DF02681979098A099B090617170758
:101180002807390708F005CF3BCF80E03ECF82E04B
:101190003CCF83E03ACF8091DC029091DD02A091B8
:1011A000DE02B091DF02892B8A2B8B2B09F44ECF04
:1011B0000E942C032091DC023091DD024091DE027E
:1011C0005091DF02641975098609970926173707B8
:1011D0004807590708F03ACF8091DB020E94870444
:1011E000B12C10929302B0929202B016110609F03F
:1011F0004AC0AA24A394B12CAC0EBD1EAC0CBD1CDD
:101200003501C5018619970980179107A8F5D701FF
:1012100011968D919C91DC01ED91FC910284F385F6
:10122000E02D1995F50181935F01EBCFF5EEF09379
:10123000BC0068CF8091DC029091DD02A091DE02BB
:10124000B091DF02892B8A2B8B2B09F45FCF0E9490
:101250002C032091DC023091DD024091DE0250919E
:10126000DF026419750986099709261737074807A9
:10127000590708F04BCFB0CFC00ED11EF3E0CF1608
:10128000D10408F4D3CE29816A8170E090E080E037
:10129000982F872F762F6627822B2B81622B0F901A
:1012A0000F900F900F90DF91CF911F910F91FF90B2
:1012B000EF90DF90CF90BF90AF909F908F907F90F6
:1012C0006F905F904F903F902F90089514960D91DE
:1012D0001C91F80180819181892B39F00280F38182
:1012E000E02D908181819CBD8DBDD8011B968C9194
:1012F0008F3F19F060E00E94100289818C83F80111
:10130000808191819E012C5F3F4F7901892B11F1E2
:10131000C9010E949F01CE0101966C01BB24BA94C1
:10132000BC82D8018D919C91892BC9F0C7010E9484
:101330009F018C81F60181936F01EE16FF0681F704
:10134000D8011B968C918F3F09F49DCF61E00E94DC
:10135000100299CFB901C8010E947A02DCCFB7010F
:10136000C8010E947A02E5CF8F929F92AF92BF92FE
:10137000CF92DF92EF92FF920F931F93CF93DF9361
:10138000EC016AEF0E9423070B891C8930E020E002
:10139000C72ED82EE92EFF24E7FCFA94C01AD10AF2
:1013A000E20AF30A57E095958795779567955A95E0
:1013B000D1F7000F111F221F331F4B015C01801A50
:1013C000910AA20AB30AA5019401AD89BE890E94BF
:1013D00081134B015C01FBE0B594A794979487942B
:1013E000FA95D1F7A7019601C701B6010E9428130B
:1013F0009B01AC01ACE05595479537952795AA958B
:10140000D1F7AF89B88D0E9481139B01AC01BEE07A
:101410005595479537952795BA95D1F7280D391DDC
:101420004A1D5B1D2F87388B498B5A8BA5E0B0E096
:101430000E94761360587F4F8F4F9F4F672F782FF2
:10144000892F992787FD9A950E94E11120E030E0CD
:1014500048EC52E40E943111DF91CF911F910F911E
:10146000FF90EF90DF90CF90BF90AF909F908F90C4
:1014700008952F923F924F925F926F927F928F9238
:101480009F92AF92BF92CF92DF92EF92FF920F9313
:101490001F93CF93DF93CDB7DEB76D970FB6F89458
:1014A000DEBF0FBECDBF9D8F8C8FFC0183859485E1
:1014B000A585B685892B8A2B8B2B19F0CF010E942D
:1014C000B40967EF8C8D9D8D0E942307688F798FFB
:1014D0008A8F9B8FEC8DFD8D87859089A189B2893C
:1014E0006C017D01FF0CCC08DC2C76019C01AD0168
:1014F0006C2D7C2D8C2D9C2D345F41405109610950
:1015000071098109910929873A874B875C873B01DB
:101510004C0159016A017B018C010E948913322E12
:10152000232E4A8B5B8B6C8B7D8B8E8B9F8BAC8D34
:10153000BD8D5C963C915C975B962C91932F990F97
:10154000990B492F592F692F792F892F0E948913C1
:101550000CE00E94B814522E39834D875E876F8746
:10156000788B898B492EEC8DFD8D368D258D932FB3
:10157000990F990BA32CB22CCA88DB88EC88FD88C4
:101580000E891F89492F592F692F792F892F0E9482
:10159000891308E00E94D114A52CB980CD84DE8483
:1015A000EF84F8880989142D0E94EE1470588F4F2B
:1015B0009F4FAC8DBD8D5996ED91FC915F01D12C63
:1015C000C12CE12CF12C8701E983BA82CB82DC8229
:1015D000ED82FE820F831887C12CD12CE12CF12CD7
:1015E00000E010E00E94891301E20E94D1142983D7
:1015F000532E4D875E876F87788B898B492EA0E0AD
:101600000E94001509F43DC1AC8DBD8D94963C91AE
:10161000949793962C91932F990F990BA32CB22CFE
:10162000CA88DB88EC88FD880E891F89492F592FCD
:10163000692F792F892F0E94891319014A8B5B8B9F
:101640006C8B7D8B8E8B9F8BEC8DFD8D32A121A1C0
:10165000932F990F990BA984BA84CB84DC847301EE
:101660008401492F592F692F792F892F0E948913BF
:1016700001E10E94B8145101CA88DB88EC88FD881A
:101680000E891F890E94EE1459016A017B01282EE0
:10169000192F488D598D6A8D7B8D84E075956795DE
:1016A000579547958A95D1F780E090E0A0E1B0E0AA
:1016B000841B950BA60BB70B3C014D01990C6608DA
:1016C000762C43019C01AD01662D762D862D962D3D
:1016D0000FE10E94B814722E832E942E652EB62F21
:1016E000A72F382E9987EC8DFD8D30A1278D932F54
:1016F000990F990B492F592F692F792F892F03E2C1
:101700000E94B814022D0E94EE1459016A017B0157
:101710008C01272D382D492D562D6B2F7A2F832D97
:1017200099850E94F714E5E3AE2EFCE0BF2EC12C94
:10173000D12CE12CF12C00E010E00E948913A9804B
:10174000B52CCD84DE84EF84F8880989142D0E949D
:10175000E31329873A874B875C8769837D878E8768
:101760009F870DE00E94D114922E832E742E652E39
:10177000562E472E382E292EAC8DBD8D9A963C9133
:101780009A9799962C91932F990F990BA92CB82C75
:10179000C72CD62CE52CF42C032D122D492F592FB4
:1017A000692F792F892F0E9489130E94891309E1DB
:1017B0000E94D114A984BA84CB84DC84E980FD849E
:1017C0000E851F850E94EE1419012A013B014C0170
:1017D000EC8DFD8D30A527A1932F990F990B492FE3
:1017E000592F692F792F892F0E94891303E10E94B5
:1017F000D11459016A017B018C019101A201B3014D
:10180000C4010E94EE1408E00E94D11459016A013B
:101810007B01E82F192FAC8DBD8D96963C91969744
:1018200095962C91932F990F990B492F592F692F2A
:10183000792F892F04E00E94B8140E2F0E94EE1415
:101840000E94D91120E030E040E85BE30E94BB1227
:101850006D960FB6F894DEBF0FBECDBFDF91CF916E
:101860001F910F91FF90EF90DF90CF90BF90AF90BE
:101870009F908F907F906F905F904F903F902F90B0
:10188000089560E070E0CB01E3CFCF93DF93EB01ED
:10189000FB01349620E2DF011D922A95E9F744E22C
:1018A00050E060E070E0488359836A837B83FC01E9
:1018B00042815381052E000C660B770B4C835D83B0
:1018C0006E837F8346E050E060E070E04887598790
:1018D0006A877B872FB7F89440910F0350911003CC
:1018E00060911103709112032FBF488B598B6A8B43
:1018F0007B8B84819581FC01438554856585768544
:10190000452B462B472B81F00E94390A20E030E01E
:1019100048EC52E40E9431116C8B7D8B8E8B9F8B37
:1019200081E0DF91CF91089560E070E080EC9FE767
:10193000EDCFCF93DF93EB01FB01349620E2DF0183
:101940001D922A95E9F744E250E060E070E0488398
:1019500059836A837B83FC0142815381052E000CED
:10196000660B770B4C835D836E837F834DE050E085
:1019700060E070E0488759876A877B872FB7F894C3
:1019800040910F0350911003609111037091120365
:101990002FBF488B598B6A8B7B8B84819581FC018F
:1019A0004385548565857685452B462B472B51F01D
:1019B0000E94B4096C8B7D8B8E8B9F8B81E0DF91B5
:1019C000CF91089560E070E080EC9FE7F3CF85ED64
:1019D0008093BC008091DC029091DD02A091DE0238
:1019E000B091DF020796A11DB11D23E0B695A79522
:1019F000979587952A95D1F72091BC0024FD03C0C7
:101A00001092DA0208954091DC025091DD0260915B
:101A1000DE027091DF02452B462B472B69F30097BE
:101A2000A105B10541F02AE22A95F1F700C001971E
:101A3000A109B109E1CF8091DB020C9487041F92C8
:101A40000F920FB60F9211242F933F938F939F9372
:101A5000AF93BF9380910F0390911003A091110356
:101A6000B091120330910E0323E0230F2D3758F568
:101A70000196A11DB11D20930E0380930F03909337
:101A80001003A0931103B09312038091130390915C
:101A90001403A0911503B09116030196A11DB11D69
:101AA0008093130390931403A0931503B09316032C
:101AB000BF91AF919F918F913F912F910F900FBE4A
:101AC0000F901F90189526E8230F0296A11DB11DB7
:101AD000D2CF1F920F920FB60F9211240BB60F9216
:101AE0002F933F934F935F936F937F938F939F9326
:101AF000AF93BF93EF93FF9387E193E00E94C503F9
:101B0000FF91EF91BF91AF919F918F917F916F91D5
:101B10005F914F913F912F910F900BBE0F900FBE91
:101B20000F901F9018951F920F920FB60F921124CD
:101B30000BB60F922F938F939F93EF93FF93E091A8
:101B40002703F09128038081E0912D03F0912E036B
:101B500082FD1DC09081809130038F5F8F73209133
:101B60003103821741F0E0913003F0E0E95EFC4F71
:101B7000958F80933003FF91EF919F918F912F91DB
:101B80000F900BBE0F900FBE0F901F901895808185
:101B9000F2CF1F920F920FB60F9211240BB60F9235
:101BA0002F933F934F935F936F937F938F939F9365
:101BB000AF93BF93EF93FF938091B900887F8036F6
:101BC00009F44DC008F040C0883209F4A7C028F5D8
:101BD000803109F49BC0C8F4882309F4F7C0883029
:101BE00009F494C0FF91EF91BF91AF919F918F91B4
:101BF0007F916F915F914F913F912F910F900BBE0D
:101C00000F900FBE0F901F901895883109F486C071
:101C1000803241F78093D80214C0803409F49BC00D
:101C200040F48033B9F38833E9F68093D80285EC29
:101C3000AEC0803509F483C0883509F494C0883477
:101C400089F60E94E70CCECF883909F48AC038F5AE
:101C5000883729F050F4883611F0803719F683E080
:101C60008093DA021092910255C0883809F479C045
:101C7000803919F0803809F0B5CF80919102803217
:101C800008F06FC0E091910281E08E0F8093910285
:101C90008091BB00F0E0EF58FD4F80833BC0803B5C
:101CA00039F0D0F4803A09F477C0883A09F09ACF35
:101CB00084E08093DA021092700210926F02F0E0DA
:101CC000E0E0199580916F0281110FC081E080934F
:101CD0006F0210924F0209C0803C09F4A8CF883CE3
:101CE00009F4A5CF883B09F07DCFE091700281E037
:101CF0008E0F80937002F0E0E15BFD4F8081809356
:101D0000BB009091700280916F0229C08091B50252
:101D10008093BB0085EC8093BC0064CF9091D70288
:101D20008091D602981758F5E091D70281E08E0F86
:101D30008093D702F0E0EA54FD4F8081E9CFE09133
:101D4000D70281E08E0F8093D7028091BB00F0E034
:101D5000EA54FD4F80839091D7028091D602981764
:101D6000C8F285E8D8CFE091D70281E08E0F80934A
:101D7000D7028091BB00F0E0EA54FD4F8083809150
:101D8000D90281115ECF81E08093B40284EA80930E
:101D9000BC001092DA0226CF85EC8093BC00109232
:101DA000DA0280919102803230F4E0919102F0E009
:101DB000EF58FD4F10826091910270E081E792E050
:101DC000F0E0E0E01995109291020CCF1092D80249
:101DD00038CFCF93DF93E7E1F3E01382128288EEEE
:101DE00093E0A0E0B0E084839583A683B7832AE0E4
:101DF00032E03183208325EC30E03587248724ECE2
:101E000030E03787268720EC30E0318B208B21ECC7
:101E100030E0338B228B22EC30E0358B248B26ECA8
:101E200030E0378B268B118E128E138E148EE4EBDE
:101E3000F3E01382128284839583A683B7838CE1B7
:101E400092E091838083C0ECD3E01B821A821D82D2
:101E50001C821B861C861D861E861BA61CA6F9835B
:101E6000E88386E090E00E942F15FC018CE392E06D
:101E70009183808388E191E093838283D583C483B7
:101E8000FF83EE8386E090E00E942F15FC018EE236
:101E900092E09183808313821282D583C483F98771
:101EA000E887DF91CF910895789484B5826084BDEE
:101EB00084B5816084BD85B5826085BD85B581604E
:101EC00085BD80916E00816080936E0010928100CC
:101ED0008091810082608093810080918100816087
:101EE0008093810080918000816080938000809148
:101EF000B10084608093B1008091B00081608093D4
:101F0000B000809191008260809391008091910057
:101F10008160809391008091900081608093900017
:101F20008091A10082608093A1008091A1008160D6
:101F30008093A1008091A00081608093A000809197
:101F40002101826080932101809121018160809331
:101F500021018091200181608093200180917A008D
:101F6000846080937A0080917A00826080937A0006
:101F700080917A00816080937A0080917A008068F5
:101F800080937A001092C100E0912703F09128031A
:101F900082E08083E0912303F09124031082E0919A
:101FA0002503F09126038FEC808310922F03E0919C
:101FB0002B03F0912C0386E08083E0912903F091BC
:101FC0002A03808180618083E0912903F0912A03B4
:101FD000808188608083E0912903F0912A038081C9
:101FE00080688083E0912903F0912A0380818F7DAE
:101FF000808361E082E00E943E0261E083E00E9413
:102000003E0261E084E00E943E0261E085E00E94C1
:102010003E0261E086E00E943E0261E087E00E94AD
:102020003E0261E088E00E943E0261E089E00E9499
:102030003E0261E08AE00E943E0261E08BE00E9485
:102040003E0261E08CE00E943E0261E08DE00E9471
:102050003E0260E082E00E94100260E083E00E94A5
:10206000100260E084E00E94100260E085E00E94BF
:10207000100260E086E00E94100260E087E00E94AB
:10208000100260E088E00E94100260E089E00E9497
:10209000100261E08AE00E94100261E08BE00E9481
:1020A000100261E08CE00E94100261E08DE00E946D
:1020B000100260E083E10E943E02C1EAD2E00BE53B
:1020C00012E095E1E92E92E0F92E8091CB039091F8
:1020D000CC03A091CD03B091CE03892B8A2B8B2BFF
:1020E00009F46BC080EC93E00E94390A20E030E0F4
:1020F00048EC52E40E9431114B015C0180920803CC
:1021000090920903A0920A03B0920B0380910403FA
:1021100090910503019680312EE0920709F452C098
:102120009093050380930403FE018491F801D490F9
:10213000F701C490CC2009F44AC081110E94A90182
:10214000EC2DF0E0EE0FFF1FEC54FE4FA591B49183
:102150008C91D82231E020E009F430E0832F922FD7
:1021600020910603309107032817390799F0209131
:102170000C0330910D03909307038093060301979E
:1021800049F42F5F3F4F2330310524F530930D0381
:1021900020930C0380910C0390910D0381309105E5
:1021A000F1F08230910501F1892B21F4C501B401D0
:1021B0000E9447060E94540488CF60E070E080ECE3
:1021C0009FE794CF1092050310920403ADCF90E0E7
:1021D00080E0C6CF10920D0310920C03DBCF60E0BD
:1021E00070EE8AE894E4E4CF60E070EE8AE095E473
:1021F000DFCFCF93DF93C091C403D091C503209765
:1022000049F08A819B81009711F00E94CB15CE0185
:102210000E94CB158091C2039091C303009711F0E7
:102220000E94CB158091C6039091C703009739F0A7
:10223000DC01ED91FC910280F381E02D19958091F4
:10224000C8039091C903009749F0DC01ED91FC911E
:102250000280F381E02DDF91CF911994DF91CF912E
:1022600008950E9445110C9481120E947A1258F030
:102270000E94731240F029F45F3F29F00C945A1227
:1022800051110C94B5120C9460120E94921268F3D2
:102290009923B1F3552391F3951B550BBB27AA271F
:1022A00062177307840738F09F5F5F4F220F331F59
:1022B000441FAA1FA9F335D00E2E3AF0E0E832D021
:1022C00091505040E695001CCAF72BD0FE2F29D024
:1022D000660F771F881FBB1F261737074807AB07F6
:1022E000B0E809F0BB0B802DBF01FF2793585F4F6B
:1022F0003AF09E3F510578F00C945A120C94B512A6
:102300005F3FE4F3983ED4F3869577956795B7954C
:10231000F7959F5FC9F7880F911D9695879597F957
:102320000895E1E0660F771F881FBB1F62177307D0
:102330008407BA0720F0621B730B840BBA0BEE1FE5
:1023400088F7E09508950E94AA116894B1110C9441
:10235000B51208950E949A1288F09F5798F0B92FED
:102360009927B751B0F0E1F0660F771F881F991FCA
:102370001AF0BA95C9F714C0B13091F00E94B412A6
:10238000B1E008950C94B412672F782F8827B85FB6
:1023900039F0B93FCCF3869577956795B395D9F722
:1023A0003EF490958095709561957F4F8F4F9F4F2C
:1023B000089597FB16F40E9463120C941D12E89482
:1023C00009C097FB3EF490958095709561957F4F7D
:1023D0008F4F9F4F9923A9F0F92F96E9BB2793952B
:1023E000F695879577956795B795F111F8CFFAF43B
:1023F000BB0F11F460FF1BC06F5F7F4F8F4F9F4F6C
:1024000016C0882311F096E911C0772321F09EE8C9
:10241000872F762F05C0662371F096E8862F70E02F
:1024200060E02AF09A95660F771F881FDAF7880F09
:102430009695879597F90895E894F92F96EBFF23E1
:1024400081F0121613061406440B9395F6958795A2
:102450007795679557954040FF23B9F71BC099279B
:102460000895882351F49850D2F7872B762F652F43
:10247000542F432F322F20E0B1F312161306140607
:10248000440B88233AF09A95440F551F661F771F17
:10249000881FCAF755234AF4440F551F11F460FFF3
:1024A00004C06F5F7F4F8F4F9F4F880F9695879522
:1024B00097F9089597F99F6780E870E060E00895C4
:1024C0009FEF80EC0895909580957095609550955C
:1024D0004095309521953F4F4F4F5F4F6F4F7F4F46
:1024E0008F4F9F4F089500240A941616170618065A
:1024F0000906089500240A94121613061406050608
:102500000895092E0394000C11F4882352F0BB0F98
:1025100040F4BF2B11F460FF04C06F5F7F4F8F4FFB
:102520009F4F089557FD9058440F551F59F05F3F36
:1025300071F04795880F97FB991F61F09F3F79F0E5
:1025400087950895121613061406551FF2CF469567
:10255000F1DF08C0161617061806991FF1CF8695E9
:102560007105610508940895E894BB2766277727CD
:10257000CB0197F908950E94CE120C9481120E940B
:10258000731238F00E947A1220F0952311F00C9407
:102590005A120C94601211240C94B5120E949212DB
:1025A00070F3959FC1F3950F50E0551F629FF001A6
:1025B000729FBB27F00DB11D639FAA27F00DB11DBF
:1025C000AA1F649F6627B00DA11D661F829F222748
:1025D000B00DA11D621F739FB00DA11D621F839FCF
:1025E000A00D611D221F749F3327A00D611D231FA5
:1025F000849F600D211D822F762F6A2F11249F57F3
:1026000050409AF0F1F088234AF0EE0FFF1FBB1FF5
:10261000661F771F881F91505040A9F79E3F5105B4
:1026200080F00C945A120C94B5125F3FE4F3983E7C
:10263000D4F3869577956795B795F795E7959F5F5E
:10264000C1F7FE2B880F911D9695879597F90895F0
:10265000DB018F939F930E947613BF91AF91A29F4E
:10266000800D911DA39F900DB29F900D1124089590
:1026700097FB072E16F4009407D077FD09D00E942F
:102680000C1507FC05D03EF4909581959F4F089559
:10269000709561957F4F0895A1E21A2EAA1BBB1B6E
:1026A000FD010DC0AA1FBB1FEE1FFF1FA217B3071E
:1026B000E407F50720F0A21BB30BE40BF50B661F34
:1026C000771F881F991F1A9469F7609570958095F8
:1026D00090959B01AC01BD01CF010895EE0FFF1F46
:1026E000881F8BBF0790F691E02D19940E9420154A
:1026F000A59F900DB49F900DA49F800D911D112456
:102700000895B7FF0C9476130E947613821B930BE7
:102710000895DF93CF931F930F939A9DF02D219FE0
:10272000F00D8B9DF00D8A9DE02DF10D039FF00DB6
:10273000029FE00DF11D4E9DE00DF11D5E9DF00D1F
:102740004F9DF00D7F936F93BF92AF925F934F9326
:10275000D5010E9420158B01AC01D7010E942015E4
:10276000EB01E80FF91FD6010E94D8132F913F917A
:10277000D6010E942015C60FD71FE81FF91FAF9181
:10278000BF910E94D8132F913F910E942015C60F30
:10279000D71FE81FF91FD6010E942015E60FF71F6B
:1027A0009801BE01CF010F911F91CF91DF91089544
:1027B0000E942015460F571FC81FD91F08F43196D5
:1027C0000895689401C0E894F92FF12B12F00C944D
:1027D0001514A0E0B0E0EFEEF3E10C948714092E9D
:1027E000059422F40E947114112392F4F0E80F264C
:1027F000FFEFE094F09400951095B094C094D094BD
:10280000A194BF0ACF0ADF0AEF0AFF0A0F0B1F0BC2
:102810000E94201407FC0E947114CDB7DEB7ECE0D3
:102820000C94A314689401C0E8948F929F92CF9364
:10283000DF930E942014DF91CF919F908F90089595
:1028400088249924F401E401B0E49F93AA279A15FF
:102850008B049C04ED05FE05CF05D007A10798F475
:10286000AD2FDC2FCF2FFE2FE92D982C892E982FFE
:10287000872F762F652F542F432F322F2227B850C2
:1028800031F7BF9127C01B2EBF91BB27220F331FEB
:10289000441F551F661F771F881F991F881C991C8E
:1028A000EE1FFF1FCC1FDD1FAA1FBB1F8A149B0436
:1028B000EC05FD05CE05DF05A007B10748F08A1835
:1028C0009B08EC09FD09CE09DF09A00BB10B2160C3
:1028D0001A94E1F62EF49401AF01BE01CD01000C73
:1028E0000895609570958095909530954095509598
:1028F00021953F4F4F4F5F4F6F4F7F4F8F4F9F4FF0
:1029000008952F923F924F925F926F927F928F9293
:102910009F92AF92BF92CF92DF92EF92FF920F936E
:102920001F93CF93DF93CDB7DEB7CA1BDB0B0FB678
:10293000F894DEBF0FBECDBF19942A883988488825
:102940005F846E847D848C849B84AA84B984C884CB
:10295000DF80EE80FD800C811B81AA81B981CE0FC2
:10296000D11D0FB6F894DEBF0FBECDBFED010895A7
:10297000002E083090F0982F872F762F652F542F38
:10298000432F322F22270850F4CF220F331F441F2A
:10299000551F661F771F881F991F0A95B2F7002DD4
:1029A000089597FD1094002E083098F00850232FBA
:1029B000342F452F562F672F782F892F912DF4CF45
:1029C000159497958795779567955795479537957A
:1029D00027950A95AAF71124002D08952A0D3B1D6D
:1029E0004C1D5D1D6E1D7F1D801F911F08952A19AE
:1029F0003B094C095D096E097F09800B910B089515
:102A00000024A7FD00942A173005400550056005F5
:102A10007005800590050895AA1BBB1B51E107C0F6
:102A2000AA1FBB1FA617B70710F0A61BB70B881F5E
:102A3000991F5A95A9F780959095BC01CD010895ED
:102A4000A29FB001B39FC001A39F700D811D1124EF
:102A5000911DB29F700D811D1124911D08950F933A
:102A60001F93CF93DF938230910510F482E090E0C2
:102A7000E091EF03F091F00330E020E0B0E0A0E05F
:102A8000309799F42115310509F44AC0281B390BF8
:102A900024303105D8F58A819B816115710589F152
:102AA000FB0193838283FE0111C040815181028129
:102AB000138148175907E0F04817590799F4109700
:102AC00061F012960C93129713961C933296CF01D5
:102AD000DF91CF911F910F9108950093EF03109311
:102AE000F003F4CF2115310551F04217530738F0A8
:102AF000A901DB019A01BD01DF01F801C1CFEF019E
:102B0000F9CF9093F0038093EF03CDCFFE01E20F56
:102B1000F31F819391932250310939832883D7CFB2
:102B20002091ED033091EE03232B41F4209102021A
:102B3000309103023093EE032093ED0320910002C5
:102B4000309101022115310541F42DB73EB7409176
:102B5000040250910502241B350BE091ED03F09126
:102B6000EE03E217F307A0F42E1B3F0B28173907DB
:102B700078F0AC014E5F5F4F2417350748F04E0FD9
:102B80005F1F5093EE034093ED03819391939FCF8A
:102B9000F0E0E0E09CCFCF93DF930097E9F0FC01F9
:102BA000329713821282A091EF03B091F003ED01EE
:102BB00030E020E01097A1F420813181820F931F33
:102BC0002091ED033091EE032817390709F061C019
:102BD000F093EE03E093ED03DF91CF910895EA01C6
:102BE000CE17DF07E8F54A815B819E01411551054B
:102BF000B1F7E901FB83EA8349915991C40FD51FCD
:102C0000EC17FD0761F4808191810296840F951F76
:102C1000E90199838883828193819B838A83F0E091
:102C2000E0E012968D919C9113970097B9F52D9144
:102C30003C911197CD010296820F931F2091ED03D5
:102C40003091EE032817390739F6309751F5109275
:102C5000F0031092EF03B093EE03A093ED03BCCF0B
:102C6000D383C28340815181840F951FC817D90730
:102C700061F44E5F5F4F88819981480F591F5183DE
:102C800040838A819B81938382832115310509F0DA
:102C9000B0CFF093F003E093EF039ECFFD01DC0192
:102CA000C0CF13821282D7CFFB01DC0141505040CC
:102CB00048F001900D920020C9F701C01D924150CB
:102CC0005040E0F7089511E0CBE6D1E000E006C007
:102CD000802FFE010E946E132196011DCC36D10774
:0A2CE00080E00807A9F7F894FFCF81
:102CEA000000F103800000000000E70351037E03A7
:102CFA003404AF038D03A103000000004405170547
:102D0A007305ED041005FD04EE04000000008504BF
:102D1A0083068604450C85060000000085048106AA
:0E2D2A008604990CD406424D50323830000019
:00000001FF
